{"abi":[{"type":"constructor","inputs":[],"stateMutability":"nonpayable"},{"type":"function","name":"addCandidate","inputs":[{"name":"_name","type":"string","internalType":"string"},{"name":"_party","type":"string","internalType":"string"}],"outputs":[],"stateMutability":"nonpayable"},{"type":"function","name":"candidateCount","inputs":[],"outputs":[{"name":"","type":"uint256","internalType":"uint256"}],"stateMutability":"view"},{"type":"function","name":"candidateIds","inputs":[{"name":"","type":"uint256","internalType":"uint256"}],"outputs":[{"name":"","type":"uint256","internalType":"uint256"}],"stateMutability":"view"},{"type":"function","name":"candidates","inputs":[{"name":"","type":"uint256","internalType":"uint256"}],"outputs":[{"name":"id","type":"uint256","internalType":"uint256"},{"name":"name","type":"string","internalType":"string"},{"name":"party","type":"string","internalType":"string"},{"name":"voteCount","type":"uint256","internalType":"uint256"},{"name":"exists","type":"bool","internalType":"bool"}],"stateMutability":"view"},{"type":"function","name":"castVote","inputs":[{"name":"_candidateId","type":"uint256","internalType":"uint256"}],"outputs":[],"stateMutability":"nonpayable"},{"type":"function","name":"election","inputs":[],"outputs":[{"name":"title","type":"string","internalType":"string"},{"name":"startTime","type":"uint256","internalType":"uint256"},{"name":"endTime","type":"uint256","internalType":"uint256"},{"name":"isActive","type":"bool","internalType":"bool"}],"stateMutability":"view"},{"type":"function","name":"getCandidate","inputs":[{"name":"_id","type":"uint256","internalType":"uint256"}],"outputs":[{"name":"id","type":"uint256","internalType":"uint256"},{"name":"name","type":"string","internalType":"string"},{"name":"party","type":"string","internalType":"string"},{"name":"voteCount","type":"uint256","internalType":"uint256"},{"name":"exists","type":"bool","internalType":"bool"}],"stateMutability":"view"},{"type":"function","name":"getCandidateCount","inputs":[],"outputs":[{"name":"","type":"uint256","internalType":"uint256"}],"stateMutability":"view"},{"type":"function","name":"getCandidateIds","inputs":[],"outputs":[{"name":"","type":"uint256[]","internalType":"uint256[]"}],"stateMutability":"view"},{"type":"function","name":"getElection","inputs":[],"outputs":[{"name":"title","type":"string","internalType":"string"},{"name":"startTime","type":"uint256","internalType":"uint256"},{"name":"endTime","type":"uint256","internalType":"uint256"},{"name":"isActive","type":"bool","internalType":"bool"}],"stateMutability":"view"},{"type":"function","name":"getVoter","inputs":[{"name":"_wallet","type":"address","internalType":"address"}],"outputs":[{"name":"name","type":"string","internalType":"string"},{"name":"age","type":"uint256","internalType":"uint256"},{"name":"walletAddress","type":"address","internalType":"address"},{"name":"faceDescriptor","type":"bytes","internalType":"bytes"},{"name":"isRegistered","type":"bool","internalType":"bool"},{"name":"hasVoted","type":"bool","internalType":"bool"}],"stateMutability":"view"},{"type":"function","name":"getVoterAddresses","inputs":[],"outputs":[{"name":"","type":"address[]","internalType":"address[]"}],"stateMutability":"view"},{"type":"function","name":"getVoterCount","inputs":[],"outputs":[{"name":"","type":"uint256","internalType":"uint256"}],"stateMutability":"view"},{"type":"function","name":"isElectionActive","inputs":[],"outputs":[{"name":"","type":"bool","internalType":"bool"}],"stateMutability":"view"},{"type":"function","name":"owner","inputs":[],"outputs":[{"name":"","type":"address","internalType":"address"}],"stateMutability":"view"},{"type":"function","name":"registerVoter","inputs":[{"name":"_wallet","type":"address","internalType":"address"},{"name":"_name","type":"string","internalType":"string"},{"name":"_age","type":"uint256","internalType":"uint256"},{"name":"_faceDescriptor","type":"bytes","internalType":"bytes"}],"outputs":[],"stateMutability":"nonpayable"},{"type":"function","name":"removeCandidate","inputs":[{"name":"_id","type":"uint256","internalType":"uint256"}],"outputs":[],"stateMutability":"nonpayable"},{"type":"function","name":"setElection","inputs":[{"name":"_title","type":"string","internalType":"string"},{"name":"_startTime","type":"uint256","internalType":"uint256"},{"name":"_endTime","type":"uint256","internalType":"uint256"},{"name":"_isActive","type":"bool","internalType":"bool"}],"outputs":[],"stateMutability":"nonpayable"},{"type":"function","name":"voterAddresses","inputs":[{"name":"","type":"uint256","internalType":"uint256"}],"outputs":[{"name":"","type":"address","internalType":"address"}],"stateMutability":"view"},{"type":"function","name":"voters","inputs":[{"name":"","type":"address","internalType":"address"}],"outputs":[{"name":"name","type":"string","internalType":"string"},{"name":"age","type":"uint256","internalType":"uint256"},{"name":"walletAddress","type":"address","internalType":"address"},{"name":"faceDescriptor","type":"bytes","internalType":"bytes"},{"name":"isRegistered","type":"bool","internalType":"bool"},{"name":"hasVoted","type":"bool","internalType":"bool"}],"stateMutability":"view"},{"type":"event","name":"CandidateAdded","inputs":[{"name":"id","type":"uint256","indexed":false,"internalType":"uint256"},{"name":"name","type":"string","indexed":false,"internalType":"string"},{"name":"party","type":"string","indexed":false,"internalType":"string"}],"anonymous":false},{"type":"event","name":"CandidateRemoved","inputs":[{"name":"id","type":"uint256","indexed":false,"internalType":"uint256"}],"anonymous":false},{"type":"event","name":"ContractDeployed","inputs":[{"name":"owner","type":"address","indexed":false,"internalType":"address"}],"anonymous":false},{"type":"event","name":"ElectionSet","inputs":[{"name":"title","type":"string","indexed":false,"internalType":"string"},{"name":"startTime","type":"uint256","indexed":false,"internalType":"uint256"},{"name":"endTime","type":"uint256","indexed":false,"internalType":"uint256"},{"name":"isActive","type":"bool","indexed":false,"internalType":"bool"}],"anonymous":false},{"type":"event","name":"VoteCast","inputs":[{"name":"voter","type":"address","indexed":true,"internalType":"address"},{"name":"candidateId","type":"uint256","indexed":false,"internalType":"uint256"}],"anonymous":false},{"type":"event","name":"VoterRegistered","inputs":[{"name":"wallet","type":"address","indexed":true,"internalType":"address"},{"name":"name","type":"string","indexed":false,"internalType":"string"}],"anonymous":false}],"bytecode":{"object":"0x6080604052348015600e575f5ffd5b50335f5f6101000a81548173ffffffffffffffffffffffffffffffffffffffff021916908373ffffffffffffffffffffffffffffffffffffffff1602179055507f8ffcdc15a283d706d38281f500270d8b5a656918f555de0913d7455e3e6bc1bf33604051607b919060c2565b60405180910390a160d9565b5f73ffffffffffffffffffffffffffffffffffffffff82169050919050565b5f60ae826087565b9050919050565b60bc8160a6565b82525050565b5f60208201905060d35f83018460b5565b92915050565b612d92806100e65f395ff3fe608060405234801561000f575f5ffd5b506004361061012a575f3560e01c80637a29da5f116100ab578063c84422391161006f578063c844223914610340578063d4f50f981461035e578063dd0e237314610393578063eceed339146103c3578063fe400bcd146103e45761012a565b80637a29da5f146102955780638da5cb5b146102b1578063a3ec138d146102cf578063a9a981a314610304578063bec0fde2146103225761012a565b806330a56347116100f257806330a56347146101d25780633477ee2e146101f057806335b8e820146102245780633eb76b9c146102585780634b1d3ede146102745761012a565b8063030161301461012e57806309e9d7e21461015e5780630a16e30b1461017a57806311174a291461019857806326541b56146101b6575b5f5ffd5b61014860048036038101906101439190611aea565b610400565b6040516101559190611b24565b60405180910390f35b61017860048036038101906101739190611aea565b610420565b005b61018261062e565b60405161018f9190611c24565b60405180910390f35b6101a06106b9565b6040516101ad9190611b24565b60405180910390f35b6101d060048036038101906101cb9190611ca5565b6106c5565b005b6101da6108fe565b6040516101e79190611b24565b60405180910390f35b61020a60048036038101906102059190611aea565b61090a565b60405161021b959493929190611dad565b60405180910390f35b61023e60048036038101906102399190611aea565b610a54565b60405161024f959493929190611dad565b60405180910390f35b610272600480360381019061026d9190611aea565b610bf2565b005b61027c610eac565b60405161028c9493929190611e0c565b60405180910390f35b6102af60048036038101906102aa9190611ed5565b610f5b565b005b6102b9611380565b6040516102c69190611f87565b60405180910390f35b6102e960048036038101906102e49190611fa0565b6113a4565b6040516102fb9695949392919061201d565b60405180910390f35b61030c611520565b6040516103199190611b24565b60405180910390f35b61032a611526565b6040516103379190612141565b60405180910390f35b61034861157c565b6040516103559190612161565b60405180910390f35b61037860048036038101906103739190611fa0565b6115b5565b60405161038a9695949392919061201d565b60405180910390f35b6103ad60048036038101906103a89190611aea565b6117ee565b6040516103ba9190611f87565b60405180910390f35b6103cb611829565b6040516103db9493929190611e0c565b60405180910390f35b6103fe60048036038101906103f991906121a4565b6118e7565b005b6007818154811061040f575f80fd5b905f5260205f20015f915090505481565b5f5f9054906101000a900473ffffffffffffffffffffffffffffffffffffffff1673ffffffffffffffffffffffffffffffffffffffff163373ffffffffffffffffffffffffffffffffffffffff16146104ae576040517f08c379a00000000000000000000000000000000000000000000000000000000081526004016104a590612272565b60405180910390fd5b60065f8281526020019081526020015f206004015f9054906101000a900460ff1661050e576040517f08c379a0000000000000000000000000000000000000000000000000000000008152600401610505906122da565b60405180910390fd5b5f60065f8381526020019081526020015f206004015f6101000a81548160ff0219169083151502179055505f5f90505b6007805490508110156105f35781600782815481106105605761055f6122f8565b5b905f5260205f200154036105e657600760016007805490506105829190612352565b81548110610593576105926122f8565b5b905f5260205f200154600782815481106105b0576105af6122f8565b5b905f5260205f20018190555060078054806105ce576105cd612385565b5b600190038181905f5260205f20015f905590556105f3565b808060010191505061053e565b507f294c5a9bc8a39e6e06502bc8da429980f6c7b0990d75b682c12cb8705e3ace85816040516106239190611b24565b60405180910390a150565b606060098054806020026020016040519081016040528092919081815260200182805480156106af57602002820191905f5260205f20905b815f9054906101000a900473ffffffffffffffffffffffffffffffffffffffff1673ffffffffffffffffffffffffffffffffffffffff1681526020019060010190808311610666575b5050505050905090565b5f600980549050905090565b5f5f9054906101000a900473ffffffffffffffffffffffffffffffffffffffff1673ffffffffffffffffffffffffffffffffffffffff163373ffffffffffffffffffffffffffffffffffffffff1614610753576040517f08c379a000000000000000000000000000000000000000000000000000000000815260040161074a90612272565b60405180910390fd5b60055f815480929190610765906123b2565b91905055506040518060a00160405280600554815260200185858080601f0160208091040260200160405190810160405280939291908181526020018383808284375f81840152601f19601f82011690508083019250505050505050815260200183838080601f0160208091040260200160405190810160405280939291908181526020018383808284375f81840152601f19601f8201169050808301925050505050505081526020015f81526020016001151581525060065f60055481526020019081526020015f205f820151815f0155602082015181600101908161084c9190612634565b5060408201518160020190816108629190612634565b50606082015181600301556080820151816004015f6101000a81548160ff0219169083151502179055509050506007600554908060018154018082558091505060019003905f5260205f20015f90919091909150557fe64f834082661dd9ed89427b87edb6270fd6dad17198b0938f0edd058914c87f600554858585856040516108f095949392919061273d565b60405180910390a150505050565b5f600780549050905090565b6006602052805f5260405f205f91509050805f01549080600101805461092f90612453565b80601f016020809104026020016040519081016040528092919081815260200182805461095b90612453565b80156109a65780601f1061097d576101008083540402835291602001916109a6565b820191905f5260205f20905b81548152906001019060200180831161098957829003601f168201915b5050505050908060020180546109bb90612453565b80601f01602080910402602001604051908101604052809291908181526020018280546109e790612453565b8015610a325780601f10610a0957610100808354040283529160200191610a32565b820191905f5260205f20905b815481529060010190602001808311610a1557829003601f168201915b505050505090806003015490806004015f9054906101000a900460ff16905085565b5f6060805f5f5f60065f8881526020019081526020015f206040518060a00160405290815f8201548152602001600182018054610a9090612453565b80601f0160208091040260200160405190810160405280929190818152602001828054610abc90612453565b8015610b075780601f10610ade57610100808354040283529160200191610b07565b820191905f5260205f20905b815481529060010190602001808311610aea57829003601f168201915b50505050508152602001600282018054610b2090612453565b80601f0160208091040260200160405190810160405280929190818152602001828054610b4c90612453565b8015610b975780601f10610b6e57610100808354040283529160200191610b97565b820191905f5260205f20905b815481529060010190602001808311610b7a57829003601f168201915b5050505050815260200160038201548152602001600482015f9054906101000a900460ff1615151515815250509050805f01518160200151826040015183606001518460800151955095509550955095505091939590929450565b5f60085f3373ffffffffffffffffffffffffffffffffffffffff1673ffffffffffffffffffffffffffffffffffffffff1681526020019081526020015f209050806004015f9054906101000a900460ff16610c82576040517f08c379a0000000000000000000000000000000000000000000000000000000008152600401610c79906127ce565b60405180910390fd5b8060040160019054906101000a900460ff1615610cd4576040517f08c379a0000000000000000000000000000000000000000000000000000000008152600401610ccb90612836565b60405180910390fd5b60065f8381526020019081526020015f206004015f9054906101000a900460ff16610d34576040517f08c379a0000000000000000000000000000000000000000000000000000000008152600401610d2b9061289e565b60405180910390fd5b60016003015f9054906101000a900460ff16610d85576040517f08c379a0000000000000000000000000000000000000000000000000000000008152600401610d7c90612906565b60405180910390fd5b6001800154421015610dcc576040517f08c379a0000000000000000000000000000000000000000000000000000000008152600401610dc39061296e565b60405180910390fd5b600160020154421115610e14576040517f08c379a0000000000000000000000000000000000000000000000000000000008152600401610e0b906129d6565b60405180910390fd5b60018160040160016101000a81548160ff02191690831515021790555060065f8381526020019081526020015f206003015f815480929190610e55906123b2565b91905055503373ffffffffffffffffffffffffffffffffffffffff167fa36cc2bebb74db33e9f88110a07ef56e1b31b24b4c4f51b54b1664266e29f45b83604051610ea09190611b24565b60405180910390a25050565b6001805f018054610ebc90612453565b80601f0160208091040260200160405190810160405280929190818152602001828054610ee890612453565b8015610f335780601f10610f0a57610100808354040283529160200191610f33565b820191905f5260205f20905b815481529060010190602001808311610f1657829003601f168201915b505050505090806001015490806002015490806003015f9054906101000a900460ff16905084565b5f5f9054906101000a900473ffffffffffffffffffffffffffffffffffffffff1673ffffffffffffffffffffffffffffffffffffffff163373ffffffffffffffffffffffffffffffffffffffff1614610fe9576040517f08c379a0000000000000000000000000000000000000000000000000000000008152600401610fe090612272565b60405180910390fd5b601283101561102d576040517f08c379a000000000000000000000000000000000000000000000000000000000815260040161102490612a3e565b60405180910390fd5b60085f8773ffffffffffffffffffffffffffffffffffffffff1673ffffffffffffffffffffffffffffffffffffffff1681526020019081526020015f206004015f9054906101000a900460ff16156110ba576040517f08c379a00000000000000000000000000000000000000000000000000000000081526004016110b190612aa6565b60405180910390fd5b6102008282905014611101576040517f08c379a00000000000000000000000000000000000000000000000000000000081526004016110f890612b34565b60405180910390fd5b6040518060c0016040528086868080601f0160208091040260200160405190810160405280939291908181526020018383808284375f81840152601f19601f8201169050808301925050505050505081526020018481526020018773ffffffffffffffffffffffffffffffffffffffff16815260200183838080601f0160208091040260200160405190810160405280939291908181526020018383808284375f81840152601f19601f8201169050808301925050505050505081526020016001151581526020015f151581525060085f8873ffffffffffffffffffffffffffffffffffffffff1673ffffffffffffffffffffffffffffffffffffffff1681526020019081526020015f205f820151815f01908161121f9190612634565b50602082015181600101556040820151816002015f6101000a81548173ffffffffffffffffffffffffffffffffffffffff021916908373ffffffffffffffffffffffffffffffffffffffff16021790555060608201518160030190816112859190612bb7565b506080820151816004015f6101000a81548160ff02191690831515021790555060a08201518160040160016101000a81548160ff021916908315150217905550905050600986908060018154018082558091505060019003905f5260205f20015f9091909190916101000a81548173ffffffffffffffffffffffffffffffffffffffff021916908373ffffffffffffffffffffffffffffffffffffffff1602179055508573ffffffffffffffffffffffffffffffffffffffff167fffeb7702be7dcd8fee170d954b70afb9a7c78f7f5cff232d037e7b9d8243356a8686604051611370929190612c86565b60405180910390a2505050505050565b5f5f9054906101000a900473ffffffffffffffffffffffffffffffffffffffff1681565b6008602052805f5260405f205f91509050805f0180546113c390612453565b80601f01602080910402602001604051908101604052809291908181526020018280546113ef90612453565b801561143a5780601f106114115761010080835404028352916020019161143a565b820191905f5260205f20905b81548152906001019060200180831161141d57829003601f168201915b505050505090806001015490806002015f9054906101000a900473ffffffffffffffffffffffffffffffffffffffff169080600301805461147a90612453565b80601f01602080910402602001604051908101604052809291908181526020018280546114a690612453565b80156114f15780601f106114c8576101008083540402835291602001916114f1565b820191905f5260205f20905b8154815290600101906020018083116114d457829003601f168201915b505050505090806004015f9054906101000a900460ff16908060040160019054906101000a900460ff16905086565b60055481565b6060600780548060200260200160405190810160405280929190818152602001828054801561157257602002820191905f5260205f20905b81548152602001906001019080831161155e575b5050505050905090565b5f60016003015f9054906101000a900460ff16801561159f575060018001544210155b80156115b057506001600201544211155b905090565b60605f5f60605f5f5f60085f8973ffffffffffffffffffffffffffffffffffffffff1673ffffffffffffffffffffffffffffffffffffffff1681526020019081526020015f206040518060c00160405290815f8201805461161590612453565b80601f016020809104026020016040519081016040528092919081815260200182805461164190612453565b801561168c5780601f106116635761010080835404028352916020019161168c565b820191905f5260205f20905b81548152906001019060200180831161166f57829003601f168201915b5050505050815260200160018201548152602001600282015f9054906101000a900473ffffffffffffffffffffffffffffffffffffffff1673ffffffffffffffffffffffffffffffffffffffff1673ffffffffffffffffffffffffffffffffffffffff16815260200160038201805461170490612453565b80601f016020809104026020016040519081016040528092919081815260200182805461173090612453565b801561177b5780601f106117525761010080835404028352916020019161177b565b820191905f5260205f20905b81548152906001019060200180831161175e57829003601f168201915b50505050508152602001600482015f9054906101000a900460ff161515151581526020016004820160019054906101000a900460ff1615151515815250509050805f015181602001518260400151836060015184608001518560a001519650965096509650965096505091939550919395565b600981815481106117fd575f80fd5b905f5260205f20015f915054906101000a900473ffffffffffffffffffffffffffffffffffffffff1681565b60605f5f5f60015f01600180015460016002015460016003015f9054906101000a900460ff1683805461185b90612453565b80601f016020809104026020016040519081016040528092919081815260200182805461188790612453565b80156118d25780601f106118a9576101008083540402835291602001916118d2565b820191905f5260205f20905b8154815290600101906020018083116118b557829003601f168201915b50505050509350935093509350935090919293565b5f5f9054906101000a900473ffffffffffffffffffffffffffffffffffffffff1673ffffffffffffffffffffffffffffffffffffffff163373ffffffffffffffffffffffffffffffffffffffff1614611975576040517f08c379a000000000000000000000000000000000000000000000000000000000815260040161196c90612272565b60405180910390fd5b8282116119b7576040517f08c379a00000000000000000000000000000000000000000000000000000000081526004016119ae90612cf2565b60405180910390fd5b604051806080016040528086868080601f0160208091040260200160405190810160405280939291908181526020018383808284375f81840152601f19601f82011690508083019250505050505050815260200184815260200183815260200182151581525060015f820151815f019081611a329190612634565b5060208201518160010155604082015181600201556060820151816003015f6101000a81548160ff0219169083151502179055509050507fccfddf379a515227c8626bb148508f80089a1f0218d3657bed460c1a627c96438585858585604051611aa0959493929190612d10565b60405180910390a15050505050565b5f5ffd5b5f5ffd5b5f819050919050565b611ac981611ab7565b8114611ad3575f5ffd5b50565b5f81359050611ae481611ac0565b92915050565b5f60208284031215611aff57611afe611aaf565b5b5f611b0c84828501611ad6565b91505092915050565b611b1e81611ab7565b82525050565b5f602082019050611b375f830184611b15565b92915050565b5f81519050919050565b5f82825260208201905092915050565b5f819050602082019050919050565b5f73ffffffffffffffffffffffffffffffffffffffff82169050919050565b5f611b8f82611b66565b9050919050565b611b9f81611b85565b82525050565b5f611bb08383611b96565b60208301905092915050565b5f602082019050919050565b5f611bd282611b3d565b611bdc8185611b47565b9350611be783611b57565b805f5b83811015611c17578151611bfe8882611ba5565b9750611c0983611bbc565b925050600181019050611bea565b5085935050505092915050565b5f6020820190508181035f830152611c3c8184611bc8565b905092915050565b5f5ffd5b5f5ffd5b5f5ffd5b5f5f83601f840112611c6557611c64611c44565b5b8235905067ffffffffffffffff811115611c8257611c81611c48565b5b602083019150836001820283011115611c9e57611c9d611c4c565b5b9250929050565b5f5f5f5f60408587031215611cbd57611cbc611aaf565b5b5f85013567ffffffffffffffff811115611cda57611cd9611ab3565b5b611ce687828801611c50565b9450945050602085013567ffffffffffffffff811115611d0957611d08611ab3565b5b611d1587828801611c50565b925092505092959194509250565b5f81519050919050565b5f82825260208201905092915050565b8281835e5f83830152505050565b5f601f19601f8301169050919050565b5f611d6582611d23565b611d6f8185611d2d565b9350611d7f818560208601611d3d565b611d8881611d4b565b840191505092915050565b5f8115159050919050565b611da781611d93565b82525050565b5f60a082019050611dc05f830188611b15565b8181036020830152611dd28187611d5b565b90508181036040830152611de68186611d5b565b9050611df56060830185611b15565b611e026080830184611d9e565b9695505050505050565b5f6080820190508181035f830152611e248187611d5b565b9050611e336020830186611b15565b611e406040830185611b15565b611e4d6060830184611d9e565b95945050505050565b611e5f81611b85565b8114611e69575f5ffd5b50565b5f81359050611e7a81611e56565b92915050565b5f5f83601f840112611e9557611e94611c44565b5b8235905067ffffffffffffffff811115611eb257611eb1611c48565b5b602083019150836001820283011115611ece57611ecd611c4c565b5b9250929050565b5f5f5f5f5f5f60808789031215611eef57611eee611aaf565b5b5f611efc89828a01611e6c565b965050602087013567ffffffffffffffff811115611f1d57611f1c611ab3565b5b611f2989828a01611c50565b95509550506040611f3c89828a01611ad6565b935050606087013567ffffffffffffffff811115611f5d57611f5c611ab3565b5b611f6989828a01611e80565b92509250509295509295509295565b611f8181611b85565b82525050565b5f602082019050611f9a5f830184611f78565b92915050565b5f60208284031215611fb557611fb4611aaf565b5b5f611fc284828501611e6c565b91505092915050565b5f81519050919050565b5f82825260208201905092915050565b5f611fef82611fcb565b611ff98185611fd5565b9350612009818560208601611d3d565b61201281611d4b565b840191505092915050565b5f60c0820190508181035f8301526120358189611d5b565b90506120446020830188611b15565b6120516040830187611f78565b81810360608301526120638186611fe5565b90506120726080830185611d9e565b61207f60a0830184611d9e565b979650505050505050565b5f81519050919050565b5f82825260208201905092915050565b5f819050602082019050919050565b6120bc81611ab7565b82525050565b5f6120cd83836120b3565b60208301905092915050565b5f602082019050919050565b5f6120ef8261208a565b6120f98185612094565b9350612104836120a4565b805f5b8381101561213457815161211b88826120c2565b9750612126836120d9565b925050600181019050612107565b5085935050505092915050565b5f6020820190508181035f83015261215981846120e5565b905092915050565b5f6020820190506121745f830184611d9e565b92915050565b61218381611d93565b811461218d575f5ffd5b50565b5f8135905061219e8161217a565b92915050565b5f5f5f5f5f608086880312156121bd576121bc611aaf565b5b5f86013567ffffffffffffffff8111156121da576121d9611ab3565b5b6121e688828901611c50565b955095505060206121f988828901611ad6565b935050604061220a88828901611ad6565b925050606061221b88828901612190565b9150509295509295909350565b7f4f6e6c79206f776e6572000000000000000000000000000000000000000000005f82015250565b5f61225c600a83611d2d565b915061226782612228565b602082019050919050565b5f6020820190508181035f83015261228981612250565b9050919050565b7f43616e64696461746520646f6573206e6f7420657869737400000000000000005f82015250565b5f6122c4601883611d2d565b91506122cf82612290565b602082019050919050565b5f6020820190508181035f8301526122f1816122b8565b9050919050565b7f4e487b71000000000000000000000000000000000000000000000000000000005f52603260045260245ffd5b7f4e487b71000000000000000000000000000000000000000000000000000000005f52601160045260245ffd5b5f61235c82611ab7565b915061236783611ab7565b925082820390508181111561237f5761237e612325565b5b92915050565b7f4e487b71000000000000000000000000000000000000000000000000000000005f52603160045260245ffd5b5f6123bc82611ab7565b91507fffffffffffffffffffffffffffffffffffffffffffffffffffffffffffffffff82036123ee576123ed612325565b5b600182019050919050565b7f4e487b71000000000000000000000000000000000000000000000000000000005f52604160045260245ffd5b7f4e487b71000000000000000000000000000000000000000000000000000000005f52602260045260245ffd5b5f600282049050600182168061246a57607f821691505b60208210810361247d5761247c612426565b5b50919050565b5f819050815f5260205f209050919050565b5f6020601f8301049050919050565b5f82821b905092915050565b5f600883026124df7fffffffffffffffffffffffffffffffffffffffffffffffffffffffffffffffff826124a4565b6124e986836124a4565b95508019841693508086168417925050509392505050565b5f819050919050565b5f61252461251f61251a84611ab7565b612501565b611ab7565b9050919050565b5f819050919050565b61253d8361250a565b6125516125498261252b565b8484546124b0565b825550505050565b5f5f905090565b612568612559565b612573818484612534565b505050565b5f5b828110156125995761258e5f828401612560565b60018101905061257a565b505050565b601f8211156125ec57828211156125eb576125b881612483565b6125c183612495565b6125ca85612495565b60208610156125d7575f90505b8083016125e682840382612578565b505050505b5b505050565b5f82821c905092915050565b5f61260c5f19846008026125f1565b1980831691505092915050565b5f61262483836125fd565b9150826002028217905092915050565b61263d82611d23565b67ffffffffffffffff811115612656576126556123f9565b5b6126608254612453565b61266b82828561259e565b5f60209050601f83116001811461269c575f841561268a578287015190505b6126948582612619565b8655506126fb565b601f1984166126aa86612483565b5f5b828110156126d1578489015182556001820191506020850194506020810190506126ac565b868310156126ee57848901516126ea601f8916826125fd565b8355505b6001600288020188555050505b505050505050565b828183375f83830152505050565b5f61271c8385611d2d565b9350612729838584612703565b61273283611d4b565b840190509392505050565b5f6060820190506127505f830188611b15565b8181036020830152612763818688612711565b90508181036040830152612778818486612711565b90509695505050505050565b7f4e6f7420726567697374657265640000000000000000000000000000000000005f82015250565b5f6127b8600e83611d2d565b91506127c382612784565b602082019050919050565b5f6020820190508181035f8301526127e5816127ac565b9050919050565b7f416c726561647920766f746564000000000000000000000000000000000000005f82015250565b5f612820600d83611d2d565b915061282b826127ec565b602082019050919050565b5f6020820190508181035f83015261284d81612814565b9050919050565b7f496e76616c69642063616e6469646174650000000000000000000000000000005f82015250565b5f612888601183611d2d565b915061289382612854565b602082019050919050565b5f6020820190508181035f8301526128b58161287c565b9050919050565b7f456c656374696f6e206e6f7420616374697665000000000000000000000000005f82015250565b5f6128f0601383611d2d565b91506128fb826128bc565b602082019050919050565b5f6020820190508181035f83015261291d816128e4565b9050919050565b7f456c656374696f6e206e6f7420737461727465640000000000000000000000005f82015250565b5f612958601483611d2d565b915061296382612924565b602082019050919050565b5f6020820190508181035f8301526129858161294c565b9050919050565b7f456c656374696f6e20656e6465640000000000000000000000000000000000005f82015250565b5f6129c0600e83611d2d565b91506129cb8261298c565b602082019050919050565b5f6020820190508181035f8301526129ed816129b4565b9050919050565b7f4d7573742062652031382b0000000000000000000000000000000000000000005f82015250565b5f612a28600b83611d2d565b9150612a33826129f4565b602082019050919050565b5f6020820190508181035f830152612a5581612a1c565b9050919050565b7f416c7265616479207265676973746572656400000000000000000000000000005f82015250565b5f612a90601283611d2d565b9150612a9b82612a5c565b602082019050919050565b5f6020820190508181035f830152612abd81612a84565b9050919050565b7f466163652064657363726970746f72206d7573742062652035313220627974655f8201527f73202831323820666c6f61743332732900000000000000000000000000000000602082015250565b5f612b1e603083611d2d565b9150612b2982612ac4565b604082019050919050565b5f6020820190508181035f830152612b4b81612b12565b9050919050565b5f819050815f5260205f209050919050565b601f821115612bb25782821115612bb157612b7e81612b52565b612b8783612495565b612b9085612495565b6020861015612b9d575f90505b808301612bac82840382612578565b505050505b5b505050565b612bc082611fcb565b67ffffffffffffffff811115612bd957612bd86123f9565b5b612be38254612453565b612bee828285612b64565b5f60209050601f831160018114612c1f575f8415612c0d578287015190505b612c178582612619565b865550612c7e565b601f198416612c2d86612b52565b5f5b82811015612c5457848901518255600182019150602085019450602081019050612c2f565b86831015612c715784890151612c6d601f8916826125fd565b8355505b6001600288020188555050505b505050505050565b5f6020820190508181035f830152612c9f818486612711565b90509392505050565b7f456e64206d7573742062652061667465722073746172740000000000000000005f82015250565b5f612cdc601783611d2d565b9150612ce782612ca8565b602082019050919050565b5f6020820190508181035f830152612d0981612cd0565b9050919050565b5f6080820190508181035f830152612d29818789612711565b9050612d386020830186611b15565b612d456040830185611b15565b612d526060830184611d9e565b969550505050505056fea2646970667358221220debf136436fb8cb6463fe04cbdd09cff6e6b43b0c4f2e4dd14e42c034c19e23264736f6c63430008210033","linkReferences":{}},"methodIdentifiers":{"addCandidate(string,string)":"26541b56","candidateCount()":"a9a981a3","candidateIds(uint256)":"03016130","candidates(uint256)":"3477ee2e","castVote(uint256)":"3eb76b9c","election()":"4b1d3ede","getCandidate(uint256)":"35b8e820","getCandidateCount()":"30a56347","getCandidateIds()":"bec0fde2","getElection()":"eceed339","getVoter(address)":"d4f50f98","getVoterAddresses()":"0a16e30b","getVoterCount()":"11174a29","isElectionActive()":"c8442239","owner()":"8da5cb5b","registerVoter(address,string,uint256,bytes)":"7a29da5f","removeCandidate(uint256)":"09e9d7e2","setElection(string,uint256,uint256,bool)":"fe400bcd","voterAddresses(uint256)":"dd0e2373","voters(address)":"a3ec138d"},"id":16}